:100000000038001005720000D17200001B2A0000A9
:10001000D5720000D9720000DD7200008460FDEF2F
:10002000000000000000000000000000E17200007D
:10003000E572000000000000E97200004F4A000075
:10004000ED720000714A0000F1720000F5720000CC
:10005000F972000065100000EF110000B5120000F9
:1000600029110000FD7200000173000005730000FB
:10007000097300000D730000117300001573000078
:10008000197300008F5700001D73000021730000DA
:1000900025730000297300002D73000031730000E8
:1000A000357300004F4D00007B0F000039730000D6
:1000B0003D730000FB6D00004173000045730000BC
:1000C000497300004D730000517300005573000028
:1000D000597300005D7300006173000065730000D8
:1000E000697300000000000080000C400880084098
:1000F00008800840080003400800034008C00A4088
:1001000008C00A400440034000C0084000C000404E
:1001100000C0004000000140000001400080094094
:1001200000800940184000401C40004018800040FA
:100130001C800040180009401C00094008800A404B
:100140000C800A40000000000000000000C00940D0
:1001500000C0094000400A4000400A4018400940E1
:100160001C40094000000000452D00000000000870
:100170007F2D000080000200672E00000080000B31
:10018000B32E000000800006E92E000000000000F1
:10019000472F000000000000892F00000000000031
:1001A000B92F0000000000000D300000000000002A
:1001B000413000000000000091300000000000000D
:1001C0004D310000000000006B3200000000000014
:1001D000D73200000001082020010820400108203B
:1001E0006001082080010820A0010820C00108202B
:1001F000E0010820000E2707008793030087930380
:04020000006CDC02B0
:0402FC00FFFFFFFF02
:1003000038B56820DFF8F01408700120DFF8E81431
:1003100048700120DFF8E0148870DFF8E00400780E
:10032000DFF8D414C870DFF8D4044078DFF8C814BC
:100330000871DFF8C8048078DFF8BC144871DFF872
:10034000BC04C078DFF8B01488710020DFF8A8146E
:10035000C8710020DFF8A01408720220DFF898149A
:100360004872DFF89C040078DFF88C148872DFF89C
:1003700094040078DFF88014C87200200500002083
:100380000400E4B2022C07DAE4B2DFF86C042018AF
:10039000807A4519641CF4E7DFF85C0405730D20CE
:1003A000DFF8541481F8010101F002F831BD38B5CD
:1003B0006820DFF8441408700120DFF83C1448700E
:1003C0000220DFF834148870DFF830040078DFF89A
:1003D0002814C870DFF824044078DFF81C14087172
:1003E000DFF818048078DFF810144871DFF80C0487
:1003F000C078DFF8041488710020DFF8FC13C8719E
:100400000020DFF8F41308721220DFF8EC134872B2
:100410000C22DFF8F413DFF8F40301F0F3F90622FD
:10042000DFF8EC13DFF8EC0301F0ECF90020050035
:1004300000200400E4B2122C07DAE4B2DFF8B803BB
:100440002018807A4519641CF4E7DFF8AC030577BF
:100450001D20DFF8A41381F8010100F0A9FF31BDD0
:1004600080B56820DFF8901308700120DFF888134A
:1004700048700320DFF880138870DFF8800300786D
:10048000DFF87413C870DFF874034078DFF868137E
:100490000871DFF868038078DFF85C134871DFF8D3
:1004A0005C03C078DFF8501388710020DFF8481330
:1004B000C8710020DFF8401308720020DFF83813FD
:1004C00048720020DFF8301388720B20DFF8281301
:1004D00081F8010100F06CFF01BD38B56820DFF83C
:1004E000181308700120DFF8101348700420DFF89B
:1004F00008138870DFF804030078DFF8FC12C87076
:10050000DFF8F8024078DFF8F0120871DFF8EC024B
:100510008078DFF8E4124871DFF8E002C078DFF895
:10052000D81288710020DFF8D012C8710020DFF8DF
:10053000C81208721020DFF8C01248720C22DFF8CF
:100540005419DFF8C80201F05DF9DFF84C090068C2
:10055000000EDFF8A4128875DFF83C090068000C73
:10056000DFF89412C875DFF830090068000ADFF878
:1005700088120876DFF820090068DFF87C124876D8
:100580000020050000200400E4B2102C07DAE4B2D9
:10059000DFF864022018807A4519641CF4E7DFF85C
:1005A000580285761B20DFF8501281F8010100F017
:1005B000FFFE31BD38B56820DFF83C12087001201D
:1005C000DFF8341248700520DFF82C128870DFF84D
:1005D0002C020078DFF82012C870DFF82002407883
:1005E000DFF814120871DFF814028078DFF80812BF
:1005F0004871DFF80802C078DFF8FC11887100202C
:10060000DFF8F411C8710020DFF8EC11087208203F
:10061000DFF8E4114872DFF884080078DFF8D811B9
:100620008872DFF878084078DFF8CC11C872DFF8FC
:100630006C088078DFF8C0110873DFF86008C078B4
:100640006D494873DFF858080068000E6A498873DE
:10065000DFF84C080068000C6749C873DFF84008F1
:100660000068000A64490874DFF8340800686249C9
:1006700048740020050000200400E4B2082C06DACB
:10068000E4B25D482018807A4519641CF5E75A48A1
:1006900085741320584981F8010100F089FE31BDAD
:1006A00038B5682054490870012053494870062025
:1006B00051498870514800784F49C8704F48407878
:1006C0004D4908714D4880784B4948714B48C07876
:1006D0004949887100204849C8710020464908727C
:1006E0000C2045494872DFF8B40700784249887207
:1006F000DFF8A80740784049C872DFF8A007807883
:100700003D490873DFF89407C0783B494873DFF828
:100710009407008880B2000A37498873DFF884079D
:1007200000883549C873DFF88007008880B2000A66
:1007300031490874DFF8700700882F494874DFF8E2
:100740006C070068000E2C498874DFF860070068A9
:10075000000C2949C874DFF854070068000A2649CC
:100760000875DFF848070068234948750020050030
:1007700000200400E4B20C2C06DAE4B21E48201873
:10078000807A4519641CF5E71B48857517201A49BE
:1007900081F8010100F00CFE31BD80B568201649DA
:1007A00008700120144948700B20134988701348C1
:1007B00000781149C870114840780F4908710F48F6
:1007C00080780D4948710D48C0780B498871002028
:1007D0000949C8710020084908720020064948727A
:1007E0000020054988720B20034981F8010100F0BF
:1007F000DFFD01BD00000000F4270010482F0010AD
:10080000E62F0010E72F0010482E0010FE270010E2
:10081000542E00100A2800102DE9F041DFF8900650
:100820000068DFF890160968401A46F67911884288
:1008300007D3FFF765FDDFF878060068DFF8741668
:100840000860DFF874060078012864D1DFF86006DC
:100850000068DFF868160968401A4FF47A71B0FB37
:10086000F1F0DFF85C160860DFF844060068DFF896
:1008700054160968401A44F26921884207D3FFF7E9
:100880000FFFDFF82C060068DFF838160860DFF885
:1008900020060068DFF830160968401A4FF47A71B4
:1008A000B0FBF1F0DFF824160860DFF820060068DE
:1008B000B5281ED2DFF81806407B062819D1DFF8CC
:1008C00014060078012814D0DFF8DC05008840F613
:1008D000AD5188420DDADFF8CC05008846F2D5210B
:1008E000884206DADFF8BC05008844F60C1188421D
:1008F00011DADFF8B8050068DFF8A41508600120F8
:1009000001F02FF8022001F02CF80020DFF8A815E4
:100910000870FFF74FFE00F0D5FE012840F0B782C7
:10092000DFF8B4050078C043DFF8AC150870DFF8D5
:10093000A805007880465FEAC87003D50A2000F059
:10094000C3FF02E00A2001F00CF8DFF8900590F8F0
:10095000010105000020DFF8841581F80201002064
:10096000DFF8781581F801010020DFF8701581F8B3
:100970000001DFF868050078682840F08782DFF81A
:100980005C05407ADFF85415897A11EB00200700E6
:10099000EDB2BFB217F10C00854240F07682002024
:1009A0000600002004002000C0B280B2BFB2B842EE
:1009B00007D2E4B2DFF824052018C07A8619641C37
:1009C000F1E7BFB2DFF814053818C07AF6B28642F4
:1009D00040F05A82DFF804058078012817D0C0F073
:1009E000568203286FD01BD3052800F00B81C0F07E
:1009F000B380072800F09C81C0F05F81092800F0D7
:100A0000EE81C0F0D0810A2800F022823FE201206E
:100A1000DFF8CC1408700020DFF8C814086036E254
:100A20000120DFF8BC1408700120DFF8BC14087046
:100A3000DFF8A804C079DFF8B41408700C22DFF8DE
:100A4000B014DFF8500400F0DDFE0020DFF844149D
:100A50004862DFF88804C07DDFF838144862DFF8A8
:100A60003404406A0002DFF82C144862DFF82404E2
:100A7000406ADFF86814097E0843DFF818144862FA
:100A8000DFF81004406A0002DFF808144862DFF85B
:100A90000404406ADFF84414497E0843DFF8F41385
:100AA0004862DFF8F003406A0002DFF8E8134862AA
:100AB000DFF8E003406ADFF82414897E0843DFF89A
:100AC000D4134862E3E10120DFF8281408700C22F7
:100AD000DFF81C14DFF8BC0300F094FE0020DFF800
:100AE000B4134862DFF8F403C07DDFF8A81348624E
:100AF000DFF8A003406A0002DFF898134862DFF8CD
:100B00009403406ADFF8D413097E0843DFF88413A6
:100B10004862DFF88003406A0002DFF87813486219
:100B2000DFF87003406ADFF8B413497E0843DFF84A
:100B300064134862DFF85C03406A0002DFF8541374
:100B40004862DFF85003406ADFF89013897E08435B
:100B5000DFF8401348629AE1DFF88003C07900288B
:100B60004FD1DFF87803C07ADFF830130870DFF870
:100B70006C03007BDFF824134870DFF86003407BD0
:100B8000DFF818138870DFF85403807BDFF80C134C
:100B9000C8700120DFF8601308700020DFF8F4123D
:100BA0004862DFF83803C07BDFF8E8124862DFF8FC
:100BB000E402406A0002DFF8DC124862DFF8D40287
:100BC000406ADFF81813097C0843B2494862B1480B
:100BD000406A0002AF494862AE48406ADFF8FC1242
:100BE000497C0843AB494862AA48406A0002A949C7
:100BF0004862A848406ADFF8E412897C0843A549A6
:100C0000486244E10120DFF8F41208700020A14995
:100C10004862B248C07A9F4948629E48406A0002D2
:100C20009C4948629B48406AAC49097B0843994902
:100C300048629848406A0002964948629548406A6E
:100C4000A649497B0843934948629248406A00029A
:100C5000904948628F48406AA049897B08438D4982
:100C6000486200208B4988629C48C07B8949886221
:100C70008848806A0002874988628648806A974966
:100C8000097C0843834988628248806A000281495E
:100C900088628048806A9149497C08437D4988621E
:100CA0007C48806A00027B4988627A48806A8B4966
:100CB000897C084377498862E9E0002075498862A9
:100CC0008648C07A734988627248806A0002714916
:100CD00088627048806A8149097B08436D4988624F
:100CE0006C48806A00026B4988626A48806A7B4966
:100CF000497B0843674988626648806A0002654903
:100D000088626448806A7549897B084361498862C2
:100D10000120734908707148C079032807D1012068
:100D200000F01FFE022000F01CFEFFF743FCAEE0C7
:100D30000020584988626948C07A564988625548F7
:100D4000806A0002534988625248806A6349097B7D
:100D50000843504988624F48806A00024D498862C2
:100D60004C48806A5D49497B08434A498862494842
:100D7000806A0002474988624648806A5749897BF1
:100D80000843444988620120554908705348C07996
:100D9000032807D1012000F0E4FD022000F0E1FD6E
:100DA000FFF708FC73E00120554908703F480068D0
:100DB0003B49086000204049087000204A490870FB
:100DC000012047490870012000F0CBFD022000F00F
:100DD000C8FD01204B490870FFF7ECFB57E00120EC
:100DE0003F49087010224249474800F00BFD00209F
:100DF000284948623948C07E264948622548406AE9
:100E00000002244948622348406A3449097F084364
:100E1000204948621F48406A00021E4948621D4836
:100E2000406A2E49497F08431A4948621948406A76
:100E30000002184948621748406A2849897F0843D8
:100E4000144948622548C07F124981F822001EE0FB
:100E50000120234908702148C07A2C4908701F4896
:100E6000007B2B4908701D48407B2A4908701B48AD
:100E7000807B294908701948C07B284908701748A9
:100E8000007C2749087002E001E000E0FFE7BDE8D0
:100E9000F0810000742E0010742F0010882F0010B5
:100EA000782F0010D42F0010D62F0010AC2F001078
:100EB000A02F00107C2F0010E62F0010B82F00107C
:100EC0006C2F0010802F0010B02F0010B42F0010D6
:100ED000302F0010F42F0010F12F0010F02600101A
:100EE000E82F0010842F0010F02F0010EF2F0010BB
:100EF000FB260010DE2F0010DF2F0010E12F001066
:100F0000E02F0010E42F00105A2E0010E92F0010DF
:100F1000EA2F0010EB2F0010EC2F0010ED2F001027
:100F2000EE2F0010012110F01F02914040B2420943
:100F3000DFF8583843F822107047012110F01F02E3
:100F4000914040B24209DFF8483843F82210704718
:100F500010B440B2002809D5CA0040B210F00F0307
:100F6000DFF830481B1903F8042C04E0CA0040B233
:100F7000DFF82438C25410BC704710B500200400BC
:100F8000082C6ED22100C9B2002001F001F800281F
:100F900065D02100C9B2012000F0FAFF002828D056
:100FA0002100C9B2002001F040F8002C03D0022C2F
:100FB00015D00AD31DE00020DFF8E01781F8020108
:100FC0000021002000F0D2FF13E00020DFF8D0174E
:100FD00081F802010021012000F0C8FF09E0002093
:100FE000DFF8C01781F802010021022000F0BEFFE7
:100FF000FFE72100C9B2022000F0CAFF00282ED06E
:101000002100C9B2012001F010F8002C03D0022CFD
:1010100019D00CD323E0DFF890070068401CDFF8FC
:10102000881708600021002000F0A0FF17E0DFF81B
:101030007C070068401CDFF874170860002101205D
:1010400000F094FF0BE0DFF868070068401CDFF851
:10105000601708600021012000F088FFFFE7641C92
:101060008EE710BD70B5DFF84C0701F039FA0400C7
:1010700014F00E000500062D0FD1DFF8380701F03F
:1010800025FA060016F09E06002E06D0DFF8180797
:101090000068401CDFF810170860042D20D10022E2
:1010A000DFF8140790F80001DFF80C174118DFF89B
:1010B000040700F062F9DFF8001791F801114018F9
:1010C000DFF8F41681F80101DFF8EC0690F8010171
:1010D000DFF8E41681F800010020DFF8E016087060
:1010E0000C2D20D10022DFF8D00690F80001DFF8A7
:1010F000C8164118DFF8BC0600F03FF9DFF8B81653
:1011000091F801114018DFF8B01681F80101DFF8FD
:10111000A80690F80101DFF8A01681F80001002070
:10112000DFF89816087070BD70B5DFF8880601F01A
:10113000D7F9040014F00E000500062D0FD1DFF8DA
:10114000740601F0C3F9060016F09E06002E06D0C4
:10115000DFF854060068401CDFF84C160860042DC8
:1011600020D10022DFF8500690F80001DFF8481681
:101170004118DFF8400600F000F9DFF83C1691F85E
:1011800001114018DFF8301681F80101DFF8280658
:1011900090F80101DFF8201681F800010020DFF847
:1011A0001C1608700C2D21D10022DFF80C0690F8D7
:1011B0000001DFF804164118DFF8F80500F0DDF84B
:1011C000DFF8F41591F801114018DFF8EC1581F8FB
:1011D0000101DFF8E40590F80101DFF8DC1581F882
:1011E00000010120DFF8D01581F8020170BD70B553
:1011F000DFF8CC0501F074F9040014F00E000500CE
:10120000062D0FD1DFF8B80501F060F9060016F0E1
:101210009E06002E06D0DFF894050068401CDFF81B
:101220008C150860042D20D10022DFF8980590F875
:101230000001DFF890154118DFF8840500F09DF8F3
:10124000DFF8801591F801114018DFF8781581F862
:101250000101DFF8700590F80101DFF8681581F8E9
:1012600000010020DFF8601508700C2D21D100224C
:10127000DFF8500590F80001DFF848154118DFF855
:10128000400500F07AF8DFF83C1591F8011140189C
:10129000DFF8301581F80101DFF8280590F8010129
:1012A000DFF8201581F800010120DFF8181581F81A
:1012B000020170BD70B5DFF8140501F011F90400EA
:1012C00014F00E000500062D0FD1DFF8000501F027
:1012D000FDF8060016F09E06002E06D0DFF8D004BA
:1012E0000068401CDFF8C8140860042D20D10022DB
:1012F000DFF8DC0490F80001DFF8D4144118DFF8BF
:10130000CC0400F03AF8DFF8C81491F80111401845
:10131000DFF8BC1481F80101DFF8B40490F8010192
:10132000DFF8AC1481F800010020DFF8A814087081
:101330000C2D21D10022DFF8980490F80001DFF88D
:1013400090144118DFF8840400F017F8DFF88014D7
:1013500091F801114018DFF8781481F80101DFF8E5
:10136000700490F80101DFF8681481F80001012091
:10137000DFF85C1481F8020170BD2DE9F04182B004
:1013800004000D001600002080460023012200A961
:10139000200001F015F80700002F06D09DF800008E
:1013A00028706D1C18F10108EFE74046BDE8F68192
:1013B00080B50020DFF820140860DFF8E003DFF8D4
:1013C0001814C860DFF8D40390F80101DFF808149E
:1013D00048601A20DFF80014C861DFF8FC0300F051
:1013E000A2FC0121002000F0C1FD01BD80B501205B
:1013F000DFF8E4130860DFF8A803DFF8DC13C86047
:10140000DFF89C0390F80101DFF8CC1348600C2052
:10141000DFF8C413C861DFF8C00300F084FC0121C9
:10142000012000F0A3FD0120DFF8741381F8020110
:1014300001BD80B50220DFF8A0130860DFF8640367
:10144000DFF89413C860DFF85C0390F80101DFF85F
:10145000881348600E20DFF88013C861DFF8780336
:1014600000F061FC0121022000F080FD0120DFF886
:10147000341381F8020101BD70B586B004000D007F
:10148000160003A800F08AFF03958DF8106000A8ED
:1014900001F058F801208DF802000020DFF8381321
:1014A00008610020DFF8301388600120DFF828137E
:1014B00048610020DFF8201388610020DFF818134E
:1014C000086201208DF8070001208DF80900322004
:1014D0008DF80B0001208DF8040000208DF8060027
:1014E00001208DF80500E4B2002C46D10322192119
:1014F000002001F09AF8B3221A21002001F095F89B
:1015000003A9AC4800F0ADFE00A9AA4800F0EDFF29
:101510000121A84801F01FF80020AF4908609F484A
:10152000AD49C8604FF48070AB4948601A20AA49A1
:10153000C8610020994981F8020100209A49086099
:10154000012200219B4800F07DFF012202219948E1
:1015500000F078FF09210820FFF7FAFC0820FFF7C8
:10156000E1FC0020944981F802010020924981F8B1
:1015700001010020904981F80001E4B2012C46D11C
:1015800002220021022001F050F802220121022053
:1015900001F04BF802220521022001F046F801205B
:1015A0008DF8080003A9864800F05BFE00A9844876
:1015B00000F09BFF01A9824800F0F0FF0121804864
:1015C00000F0C9FF01208449086075488249C8605D
:1015D0004FF48070804948600C207F49C86100202A
:1015E0006F4981F802010020704908600122002142
:1015F000734800F027FF01220221714800F022FF0A
:1016000009210620FFF7A4FC0620FFF78BFCE4B2BB
:10161000022C43D102220821022001F006F8022206
:101620000921022001F001F804220621022000F025
:10163000FCFF03A9654800F014FE00A9634800F010
:1016400054FF01A9614800F0A9FF01215F4800F0A3
:1016500082FF02206049086052485F49C8604FF429
:1016600080705D4948600E205B49C86100204D498B
:1016700081F8020100204E490860012200215348F0
:1016800000F0E0FE01220221504800F0DBFE0921BB
:101690000720FFF75DFC0720FFF744FC00F014FB78
:1016A0001A20FFF74AFC09211A20FFF751FC4A488B
:1016B00000F039FB1A20FFF735FC012000F0F6FF9F
:1016C00006B070BD0020354991F80211012902D100
:1016D0000221080003E0384991F802110800C0B265
:1016E000704700202E4991F80211012902D10221F0
:1016F000080003E0334991F802110800C0B27047B6
:101700000020284991F80211012902D10221080084
:1017100003E02F4991F802110800C0B27047264833
:1017200090F8010100280CD024480078401C23497F
:10173000087022480078152803DB01201E4981F833
:101740000201204890F8010100280CD01E480078C2
:10175000401C1D4908701C480078152803DB012037
:10176000184981F802011A4890F8010100280CD0AC
:1017700018480078401C17490870164800786528FA
:1017800003DB0120124981F80201704700E100E00B
:1017900080E100E018ED00E000E400E0F427001034
:1017A000FC290010042C0010C02F0010C42F0010C2
:1017B000C82F001000C00940F0260010F92F0010BB
:1017C00000000140F8280010FA2F001000800940A6
:1017D000002B0010FB2F0010A02E001080B500225F
:1017E0004FF416510120FFF747FE02224FF4166115
:1017F0000220FFF741FE00224FF416410020FFF7C0
:101800003BFE01BD10B5044600F096FF204610BD1A
:1018100038B500200500EDB2022D1EDAEDB2DFF87A
:101820008C0410F8150001F032F80400EDB2DFF876
:101830007C0410EB4500407834FA00F0C00705D571
:101840000020EDB2DFF86814685404E00120EDB226
:10185000DFF85C1468546D1CDDE700200500EDB274
:10186000022D30DAEDB2DFF84804285CEDB2DFF883
:101870004414695C884217D1EDB2DFF83C04285C5F
:10188000401CEDB2DFF830146854EDB2DFF82804E4
:10189000285C0B280DDBEDB2DFF81404285CEDB2F8
:1018A000DFF80414685404E00020EDB2DFF80814F7
:1018B0006854EDB2DFF8F803285CEDB2DFF8F413FA
:1018C00068546D1CCBE731BD10B50400E4B2082CA0
:1018D00014DA01220120E4B2DFF8E01311EB440135
:1018E00011F9011C10FA01F1E4B2DFF8D00310EB9A
:1018F000440010F8020C00F0B7FF31E0E4B20A2C0B
:1019000017DBE4B20C2C14DA01220120E4B2DFF878
:10191000B01311EB440111F9131C10FA01F1E4B2F8
:10192000DFF89C0310EB440010F8140C00F09CFF4F
:1019300016E0E4B2142C13D101220120E4B2DFF846
:10194000841311EB440111F9271C10FA01F1E4B2E0
:10195000DFF8700310EB440010F8280C00F084FF4F
:1019600010BD10B50400E4B2072C12DA00220120E9
:10197000E4B2D24911EB440111F9011C10FA01F152
:10198000E4B2CE4810EB440010F8020C00F06CFFFB
:101990002DE0E4B20A2C15DBE4B20C2C12DA0022A2
:1019A0000120E4B2C64911EB440111F9131C10FAED
:1019B00001F1E4B2C24810EB440010F8140C00F03E
:1019C00053FF14E0E4B2142C11D100220120E4B240
:1019D000BC4911EB440111F9271C10FA01F1E4B2E2
:1019E000B84810EB440010F8280C00F03DFF10BD83
:1019F00038B50400E4B2072C1CDAE4B2AF4810EBAF
:101A0000440010F8020C00F042FF0500E4B2AB48BD
:101A100010EB440010F8010C35FA00F0C00704D5B3
:101A20002000C0B2FFF79DFF46E02000C0B2FFF7E4
:101A30004BFF41E0E4B20A2C1FDBE4B20C2C1CDAB1
:101A4000E4B29F4810EB440010F8140C00F01FFFA4
:101A50000500E4B29A4810EB440010F8130C35FA74
:101A600000F0C00704D52000C0B2FFF77AFF23E0E2
:101A70002000C0B2FFF728FF1EE0E4B2142C1BD1F7
:101A8000E4B2904810EB440010F8280C00F0FFFE80
:101A90000500E4B28B4810EB440010F8270C35FA2F
:101AA00000F0C00704D52000C0B2FFF75AFF03E0E2
:101AB0002000C0B2FFF708FF31BD10B500240020A0
:101AC0000400E4B2022C33DA00220120E4B27749A8
:101AD00011EB440191F9011010FA01F1C9B2E4B21D
:101AE000724810F8140000F0A0FD00220120E4B2BA
:101AF0006E4911EB440191F9011010FA01F1E4B2C1
:101B00006A4810F8140000F084FE10220120E4B2AC
:101B1000664911EB440191F9011010FA01F1C9B2C3
:101B2000E4B2624810F8140000F094FD641CC8E7A9
:101B300000200400E4B2072C43DA00220120E4B2C2
:101B40005E4911EB440191F9011010FA01F1C9B29B
:101B5000E4B25A4810F8140000F067FD002201209A
:101B6000E4B2564911EB440191F9011010FA01F168
:101B7000E4B2524810F8140000F076FE0122012071
:101B8000E4B24E4911EB440191F9011010FA01F150
:101B9000E4B24A4810F8140000F03BFE1022012085
:101BA000E4B2464911EB440191F9011010FA01F138
:101BB000C9B2E4B2414810F8140000F04BFD641CB7
:101BC000B8E700200400E4B2022C33DA002201203E
:101BD000E4B23B4911EB440191F9011010FA01F113
:101BE000C9B2E4B2364810F8140000F01EFD01221C
:101BF0000120E4B2324911EB440191F9011010FACD
:101C000001F1E4B22E4810F8140000F002FE102298
:101C10000120E4B22A4911EB440191F9011010FAB4
:101C200001F1C9B2E4B2264810F8140000F012FD28
:101C3000641CC8E700200400E4B2002C33D1002269
:101C40000120E4B21F4911EB440191F9011010FA8F
:101C500001F1C9B2E4B21B4810F8140000F0E5FC31
:101C600001220120E4B2174911EB440191F901105E
:101C700010FA01F1E4B2134810F8140000F0C9FDA5
:101C800010220120E4B20F4911EB440191F9011037
:101C900010FA01F1C9B2E4B20A4810F8140000F0D9
:101CA000D9FC641CC8E710BDCC2F0010C87200001E
:101CB000CE2F0010D02F0010D22F0010F470000093
:101CC000CC720000162A000080B501215FF00050A0
:101CD00000F00EFE0020DFF8701308600020DFF82F
:101CE0006C1308600020DFF8681308600020DFF83C
:101CF000641308600020DFF8601308600020DFF83C
:101D00005C1308600020DFF8581308600020DFF83B
:101D100054130860FF20DFF850130860FF20DFF83D
:101D20004C13086001BD70B40100DFF84403006883
:101D300001250E68B5402840000601D0002013E1BF
:101D40000868CC4D55F82000020001200D68A8401D
:101D5000C0B2C54D286001200D68A840C0B2C34D77
:101D600028600020D06000201061086A90604869F7
:101D7000002805D0022844D019D303286BD097E05F
:101D8000C86810600869506048680005000D0D7A49
:101D900015F0070550EA85400D7A15F0070550EA61
:101DA000455040F00C4050F41030D06082E0C868DC
:101DB0001060C869B04D55F82000506048680005B3
:101DC000000DCD69AD4EAD5D15F0070550EA05304B
:101DD000CD69AA4EAD5D15F0070550EAC530CD6955
:101DE000A74EAD5D15F0070550EA8540CD69A44EBC
:101DF000AD5D15F0070550EA455050F00440D06045
:101E000058E088699C4D55F82000106008695060C2
:101E100048680005000D8D69984EAD5D15F0070509
:101E200050EA05308D69954EAD5D15F0070550EA15
:101E3000C5308D69924EAD5D15F0070550EA8540BD
:101E40008D698F4EAD5D15F0070550EA455050F095
:101E50000840D0602EE08869874D55F8200010605A
:101E6000C869854D55F82000506048680005000D90
:101E70008D69824EAD5D15F0070550EA0530CD69DC
:101E80007E4EAD5D15F0070550EAC5308D697C4E7C
:101E9000AD5D15F0070550EA8540CD69784EAD5D22
:101EA00015F0070550EA455050F00040D06001E0C1
:101EB000002059E08869082817D08869092814D0BB
:101EC0008869102809D36F48006801258E69103E83
:101ED000B54028436B4D286007E06A48006801253B
:101EE0008E69B540A843674D2860C869082818D096
:101EF000C869092815D0C869102809D36148006845
:101F00000125CE69103EB54028435E4D286008E0AB
:101F10005C4800680125CE69083EB540A843594D8C
:101F200028600120584D286057480068C007FBD53D
:101F300088690300102B01D3103BFFE7C869040038
:101F4000102C01D3103CFFE7087D10F0070013F0C0
:101F50001F056D0055EAC02014F01F0550EA8510DA
:101F600050F440401061012070BC7047C0B2414B3A
:101F700053F820301A00C9B2012904D1136953F073
:101F80000103136103E013695B085B001361704791
:101F90000200D2B2002A06D0022A1AD00ED3042A96
:101FA0002DD021D336E03948006801238B401840FA
:101FB000000601D0012037E0002035E034480068F9
:101FC00001238B401840000601D001202CE00020A6
:101FD0002AE03048006801238B401840000601D0F9
:101FE000012021E000201FE02B48006801238B40E6
:101FF0001840000601D0012016E0002014E0274818
:10200000006801238B401840000601D001200BE03E
:10201000002009E01648006801238B4018400006A4
:1020200001D0012000E000207047C0B2002805D197
:1020300001228A40D2B20C4B1A6004E001228A408D
:10204000D2B20A4B1A6070471001082030010820F4
:10205000500108207001082090010820B0010820DC
:10206000D0010820F00108200800082010000820F6
:102070001C000820F0000010000000103470000068
:1020800054700000C4C10F40300008200000082038
:10209000040008200C000820180008201400082064
:1020A0002DE9F34F8BB000208DF80800012000F0DF
:1020B00007FC07905FF0FF300390002005900020A0
:1020C000049000200021CDE9080101208346BBF1E6
:1020D000100F43D200208246DA4539D2DDF81C8049
:1020E0005FF000095FEA097949EA18195FEA0878A0
:1020F0005A460023A2FB080102FB091103FB081149
:102100000C9A1AEB0B035A43002300F00DFC040059
:102110000D0027002E00B7F1004F01D97F42761C39
:10212000002E02D0B6F1011F00D30EE003988742C3
:102130000BD2039730000021CDE90801CDF814A09F
:10214000CDF810B00398002802D01AF1010AC3E7B5
:102150000398002802D01BF1010BB8E7DDE9080164
:10216000002903D1002801D1002077E00798000959
:10217000049948430021CDE90001DDE9088904986C
:10218000059908180021A0FB082300FB093301FB77
:102190000833DDE9000100F0C7FB069006980C99B2
:1021A000884204D20C980699401A039003E00698DE
:1021B0000C99401A03900398642148430C99B0FB92
:1021C000F1F003900398032846D20B98DFF82C1403
:1021D00088421FD10B98007B50F080000B99087348
:1021E000DDE9080180B2000A0B990871DDE90801F8
:1021F0000B9908700B98007B10F07F000B99087307
:102200000498059911F00F0151EA0010C0B20B9922
:1022100088621EE00B98007B50F080000B990873D9
:10222000DDE9080180B2000A0B990871DDE90801B7
:102230000B9908700B98007B10F07F000B990873C6
:102240000498059911F00F0151EA00100B9981F8DB
:10225000280001208DF808009DF808000DB0BDE8A9
:10226000F08F70B504000D00DFF89403844203D1B1
:102270000121082000F03CFBDFF88003844203D1F9
:102280000121102000F034FBDFF87803844204D1F0
:1022900001215FF0807000F02BFBDFF86C038442BB
:1022A00004D101215FF0007000F022FB07202072B2
:1022B00000202072207DC00702D520780600F9E7B3
:1022C000802084F83000207D8006FCD5002084F832
:1022D0003000002060600020207300202062002079
:1022E00084F84C00002084F85400002084F850004A
:1022F000207D0600DFF80403844204D1002020740E
:10230000207E060002E0002084F8240029682000D6
:10231000FFF7C6FEDFF8E402844204D1207B10F010
:10232000C000060003E0207B10F0C00006006879C2
:10233000002803D0022805D001D306E007E056F0BC
:10234000010604E056F0020601E056F00306287983
:10235000002815D056F008062879012806D00FD39A
:10236000032807D003D3042807D009E008E056F07B
:10237000100605E056F0200602E056F03006FFE7B2
:10238000A879012802D156F00406FFE7DFF86C02B5
:10239000844201D1267300E0267370BD5FF4E13101
:1023A0000160032141710021017100218171704799
:1023B000DFF84812884201D1007800E000787047C9
:1023C0002DE9F84F04000D0016001F00AB46B04683
:1023D000FFB2012F1FD100208146B8F1000F2ED08F
:1023E0005FF0FF308246207DC00705D4BAF1000FB0
:1023F00002D0BAF1010AF6E7BAF1000F1FD02000AF
:10240000FFF7D6FF8BF800001BF1010BB8F10108B4
:1024100019F10109E1E700208146B8F1000F0ED063
:10242000207DC0070BD52000FFF7C2FF8BF800000E
:102430001BF1010B19F10109B8F10108EDE748465C
:10244000BDE8F28F30B4C9B2002909D002290DD0FD
:1024500009D3042910D00CD3062914D00FD315E0CA
:102460000124230012E0022423000FE004242300AF
:102470000CE00824230009E08024230006E04FF448
:102480008074230002E04FF400742300D2B2012ACA
:102490000AD15A4CA04203D144681C43446013E063
:1024A00044681C4344600FE0544CA04206D1446889
:1024B00040F28F359D432C40446005E0446840F273
:1024C00007359D432C40446030BC704701004B48A9
:1024D000814203D14D480078C0B200E0087D7047CA
:1024E000806840F2CF3108407047002252F001026C
:1024F000CB78002B03D0022B05D001D306E007E0F8
:1025000052F0400204E052F0800201E052F0C002BA
:102510004B78012B01D152F004020B78012B01D131
:1025200052F002028B78012B01D152F00802334B9A
:10253000984203D112F0CF03037202E012F0CF03EE
:1025400003727047002181700321C1700121017065
:10255000012141707047C9B2012910D1274A904228
:1025600006D190F8302052F0800280F8302014E03C
:1025700090F8302052F0800280F830200DE01F4AA1
:10258000904205D190F83020002380F8303004E0EC
:1025900090F83020002380F83030704700231A0074
:1025A000CB78012B11D152F010024B79012B01D1C4
:1025B00052F020020B79012B04D1104B984201D12B
:1025C00052F00802CB7980F854300B78012B01D1FE
:1025D00052F001028B78012B04D152F004028B7966
:1025E00080F850304B78002B01D152F0020212F0EB
:1025F0003F0380F84C3070470000000000000140AD
:1026000000C000400080094000C0094014000140A3
:1026100002000020D2B2C9B211EB42139B0003F1B9
:10262000804313F5303318007047F8B504000D00EF
:10263000160000272900C9B22000C0B2FFF7E8FF4A
:102640000700387810F0070038603868F6B2304379
:102650003860F1BDF8B504000D0016000027290010
:10266000C9B22000C0B2FFF7D3FF0700386830F0CE
:10267000180038603868F6B230433860F1BD10B4E5
:1026800050F8041B81B102681218001D50F8043B79
:10269000DC0744BFA9F10104E31852F8044B43F8E6
:1026A000044B091FF9D1EBE710BC7047C0B20028FA
:1026B0000AD100211C4A11604FF6FF711B4A1160BC
:1026C00000211B4A11701CE0C0B201280AD115215B
:1026D000154A11604FF6FF71144A11600121144A26
:1026E00011700EE0C0B202280AD136210E4A1160E4
:1026F0005FF0FF310D4A116002210D4A117000E0B8
:10270000FEE7704730B403000A4804001D000029AA
:1027100004D0287820706D1C491EF8E70548006831
:1027200030BC7047000000000000092004000920B0
:10273000F22F00100800092062B38B0708D0521E48
:1027400011F8013B00F8013B00F024808B07F6D123
:10275000830740F0208000BF103A07D330B4B1E8BF
:102760003810103AA0E83810F9D230BC530724BF13
:10277000B1E80810A0E8081044BF51F8043B40F845
:10278000043BD20724BF31F8022B20F8022B44BFB0
:102790000B7803707047083A07D3B1E80810083A7D
:1027A00040F8043B40F804CBF7D25307E4E750F875
:1027B000041B61B150F8042BD30744BFA9F10103F6
:1027C0009A18002342F8043B091FFAD1EFE770473B
:1027D00001000020C9B2002908D002290CD008D37A
:1027E00004290FD00BD305290FD011E02E4A100079
:1027F0000EE02E4A10000BE02D4A100008E02D4A92
:10280000100005E02C4A100002E02C4A1000FFE7FF
:10281000704770B504000D0016002000C0B2FFF72D
:10282000D7FF002809D0F6B2002E03D00168294353
:10283000016002E00168A943016070BD38B5040081
:102840000D002000C0B2FFF7C3FF002800D0856153
:1028500031BD38B504000D002000C0B2FFF7B8FF4D
:10286000002800D0C56131BD70B504000D00160010
:10287000F6B2002E05D129002000C0B2FFF7E9FF13
:1028800004E029002000C0B2FFF7D8FF70BD10B5EA
:1028900004002000C0B2FFF79BFF0100002901D017
:1028A000486900E0002010BD008009202080092038
:1028B000408009206080092080800920A0800920B4
:1028C0000100C9B2002905D0022909D005D3032986
:1028D00009D00BE00F48006809E00F48006806E0E7
:1028E0000E48006803E00E48006800E0FEE770470D
:1028F000C9B2012905D10B4A12680243094B1A607B
:1029000007E0C9B2002904D1064A12688243054B88
:102910001A60704710010010140100101801001017
:102920001C010010C4C00F401B4213D1094236D114
:102930002AB18446B0FBF2F002FB10C2704700F0EF
:102940006BB8FCD30022002370470B00020000216B
:1029500000207047904271EB030CF6D370B5B1FACA
:1029600081F4B3FA83F52C1BA340C4F1200532FA9D
:1029700005F63343A2405FF00046E64002E05B0804
:102980005FEA3202841A71EB030524BF2046294610
:102990007641F4D302000B003000002170BD012A03
:1029A000CFD970B5140C20D0B1FA81F4B2FA82F507
:1029B000C4F120046419B4F12006D6D3B2405FF00C
:1029C0000044F440002502E052085FEA3303C61ACF
:1029D00071EB020E24BF3046714664416D41F3D362
:1029E00002000B002000290070BD0C46B1FBF2F183
:1029F00002FB11452D0445EA1045B5FBF2F402FB3C
:102A0000145580B240EA0545B5FBF2F002FB1052C6
:102A100040EA044070BD03057047704710B54FF49D
:102A2000E0720021DFF8040700F0E0FC0020040061
:102A3000E4B20E2C0EDA0822E4B2DFF8780510EBCF
:102A4000C401E4B2DFF8E40610EB4410FEF7DAFE4E
:102A5000641CEDE7DFF8D406DFF8A8150860DFF89E
:102A6000CC06DFF8A41508600020DFF8C815086060
:102A70000020DFF8C41508600020DFF8B016886178
:102A8000DFF8F805DFF8A4168860DFF8B005DFF896
:102A90009C16C8600020DFF8941608610020DFF85B
:102AA0008C164861DFF88406DFF880168865DFF849
:102AB000D005DFF878168864DFF8C805DFF86C16F3
:102AC000C8640020DFF8641608650020DFF85C1693
:102AD0004865DFF85806DFF8541688630020DFF8F1
:102AE0004C1688620020DFF84416C8620020DFF828
:102AF0003C1608630020DFF834164863DFF87C05D5
:102B0000DFF828168867DFF88005DFF8201688666A
:102B10000020DFF81816C8660020DFF810160867D6
:102B20000020DFF808164867DFF85405DFF8FC15C9
:102B3000C1F89800DFF85405DFF8F015C1F88800F7
:102B40000020DFF8E815C1F88C000020DFF8DC1564
:102B5000C1F890000020DFF8D415C1F89400DFF828
:102B6000CC05DFF8C815C1F8B800DFF8C405DFF8F8
:102B7000BC15C1F8A800DFF8BC05DFF8B015C1F836
:102B8000AC00DFF8B405DFF8A415C1F8B0000020F0
:102B9000DFF89815C1F8B4000020DFF89015C1F8EF
:102BA000D800DFF8D804DFF88415C1F8C800002089
:102BB000DFF87815C1F8CC000020DFF87015C1F8F7
:102BC000D0000020DFF86415C1F8D4000020DFF841
:102BD0005C15C1F8F800DFF8A404DFF85015C1F85F
:102BE000E8000020DFF84415C1F8EC000020DFF811
:102BF0003C15C1F8F0000020DFF83015C1F8F400F2
:102C0000DFF87804DFF82415C1F81801DFF87C0438
:102C1000DFF81815C1F808010020DFF81015C1F819
:102C20000C010020DFF80415C1F810010020DFF8C6
:102C3000FC14C1F81401DFF84404DFF8F014C1F803
:102C40003801DFF8F804DFF8E414C1F828010020A7
:102C5000DFF8D814C1F82C010020DFF8D014C1F837
:102C600030010020DFF8C414C1F83401DFF80C048F
:102C7000DFF8B814C1F85801DFF8C404DFF8AC1469
:102C8000C1F848010020DFF8A414C1F84C0100206D
:102C9000DFF89814C1F850010020DFF89014C1F853
:102CA00054010020DFF88414C1F87801DFF894049F
:102CB000DFF87814C1F86801DFF88C04DFF86C14D1
:102CC000C1F86C010020DFF86414C1F87001002025
:102CD000DFF85814C1F874010020DFF85014C1F86F
:102CE0009801DFF86004DFF84414C1F88801DFF8C8
:102CF0005004DFF83814C1F88C010020DFF82C14E0
:102D0000C1F890010020DFF82414C1F89401DFF825
:102D10001C04DFF81814C1F8B8010020DFF80C1407
:102D2000C1F8A8010020DFF80414C1F8AC010020AC
:102D3000DFF8F813C1F8B0010020DFF8F013C1F894
:102D4000B40110BD10B5DFF82006040023000022F6
:102D500014210A2000F0B0FCDFF810060400230064
:102D600000220E21202000F0A7FCDFF8040604005A
:102D7000230000223221322000F09EFC10BD10B54D
:102D800084B0DFF8F00504002300002201210220B6
:102D900000F092FCDFF8E005040023000022062189
:102DA000122000F089FC984800684078000649D459
:102DB000DFF8A005C078C0B2000930308DF80000FF
:102DC000DFF89005C07810F00F0030308DF801006A
:102DD000DFF880058078C0B2000930308DF802003D
:102DE000DFF87005807810F00F0030308DF80300A8
:102DF000DFF860054078C0B2000930308DF804007B
:102E0000DFF85005407810F00F0030308DF80500E5
:102E1000DFF840050078C0B2000930308DF80600B8
:102E2000DFF83005007810F00F0030308DF8070023
:102E300000208DF8080000AB00220C21222000F0B9
:102E40003BFC06E0DFF8D83400220C21222000F001
:102E500033FCDFF81C05040023000022322132205D
:102E600000F02AFC1FBD10B5DFF810050400230098
:102E700000220121022000F01FFCDFF804050400FD
:102E8000230000220821122000F016FCDFF8F404D1
:102E90000400230000220821222000F00DFCDFF8AE
:102EA000D0040400230000223221322000F004FC70
:102EB00010BD10B5DFF8D0040400230000220C215F
:102EC0000A2000F0F9FBDFF8583400220C21222000
:102ED00000F0F2FBDFF89804040023000022322106
:102EE000322000F0E9FB10BD3EB5DFF8A00404007D
:102EF000230000220C210A2000F0DEFB0020050048
:102F0000EDB2122D0FD2EDB2DFF81404285C0028C8
:102F100005D02A20EDB200A968546D1CF0E700200E
:102F2000EDB200A9685400AB00220C21222000F071
:102F3000C3FBDFF83C0404002300002232213220CE
:102F400000F0BAFB37BD10B5DFF8440404002300DD
:102F500000220A210A2000F0AFFBDFF83804040049
:102F6000230000221621202000F0A6FBDFF8E80352
:102F70000068DFF8E813096801F56A4160318842AA
:102F800001D300F0DBF910BD10B5DFF80C0404002C
:102F9000230000220A21122000F08EFBDFF8D0036C
:102FA0000400230000223221322000F085FB10BDF6
:102FB000000000008000001010B5DFF8E0030400FE
:102FC000230000220121022000F076FBDFF8D0036D
:102FD0000400230000220121122000F06DFBDFF825
:102FE000C4030400230000220121222000F064FB1E
:102FF000DFF87C030400230000223221322000F09D
:103000005BFB10BD5C2F0010602F001010B5DFF8C7
:1030100098030400230000221021102000F04CFB34
:10302000DFF84C030400230000223221322000F09C
:1030300043FB10BD642F0010682F001050250010B6
:1030400010B5DFF8680304002300002201210220EC
:1030500000F032FBDFF858030400230000220121B6
:10306000122000F029FBDFF80803040023000022EF
:103070003221322000F020FB10BD0000702500102E
:103080009025001030260010B0250010D02500102B
:1030900010B500F0E9FBDFF8C8124873DFF8C00292
:1030A000407B0C280CD1DFF80C0304002300002225
:1030B0000121022000F000FB0B20FEF752FC34E05F
:1030C000DFF89C02407B09280CD1DFF8EC020400F9
:1030D000230000220121022000F0EEFA0B20FEF76F
:1030E000F3FB22E0DFF87802407B06281DD1DFF8F1
:1030F000CC020400230000220121022000F0DCFAAF
:103100000B20FEF72EFCDFF8B8020400230000229B
:103110000121322000F0D0FADFF85402040023002D
:1031200000223221322000F0C7FA10BD30250010F5
:1031300050260010F02500101026001070260010F8
:1031400090260010D0260010B026001010B584B0D4
:10315000DFF870020400230000220121022000F0A9
:10316000ABFA6EA00400DFF8FC0100684EF66021A7
:10317000B0FBF1F010F00F0030308DF80000DFF8F8
:10318000E401006841F27071B0FBF1F010F00F0043
:1031900030308DF80100DFF8CC0100684FF4167173
:1031A000B0FBF1F010F00F0030308DF80200DFF8C6
:1031B000B40100683C21B0FBF1F010F00F0030309A
:1031C0008DF8030020788DF8040060788DF80500F4
:1031D00000208DF8060000AB00221C21022000F028
:1031E0006BFADFF8E4010400230000220121122021
:1031F00000F062FADFF8D40104002300002232213B
:10320000122000F059FADFF8C80104002300002260
:103210000121322000F050FA55480400230000221A
:103220003221322000F048FADFF8A8010068DFF808
:10323000A811097888420AD04A480068401C4949C8
:103240000860DFF890010068DFF88C11087000F06A
:103250000BFB434948734248407B062804D00120B9
:10326000FEF77FFB00F05EF81FBD10B55B48040061
:10327000230000220121022000F01EFA5848040019
:10328000230000220121122000F016FA2AA00400D7
:10329000230000223221022000F00EFA4D4800687F
:1032A0004D490978884208D02E480068401C2D49B5
:1032B0000860484800684849087000F0D5FA284975
:1032C00048732748407B062804D00120FEF749FBBD
:1032D00000F028F810BD10B5344804002300002287
:1032E0000121022000F0E8F9374804002300002201
:1032F0000121122000F0E0F93A48040023000022E6
:103300000121222000F0D8F91948040023000022EE
:103310003221322000F0D0F910BD0000B7D60000F5
:103320001C2F001001200A4908702F48006880688F
:103330002D490860704700007570000001200449A5
:1033400008702948006880692749086070470000B4
:10335000E22F0010482F0010A02F0010702F001037
:10336000302F00106C2F0010147200000471000048
:10337000A872000020720000147100002471000087
:103380002C7200003471000044710000387200009B
:1033900054710000B072000064710000B870000049
:1033A00044720000507200005C72000074710000F2
:1033B0008471000094710000A4710000B4710000D9
:1033C0006872000074720000CC700000B8720000D7
:1033D00080720000C42E0010E32F0010C4710000A2
:1033E000D4710000E4710000602F001010B5044695
:1033F00010460A460146204600F048FA204610BD15
:1034000080B5002240210020FFF72EFA01BD80B5D3
:10341000012240210020FFF727FA01BD80B50122DB
:103420004FF480410420FFF71FFA01BD80B5002250
:103430004FF480710020FFF717FA01BD80B501221B
:103440004FF480710020FFF70FFA01BD00B587B07F
:10345000002206210020FFF7E8F8022207210020C1
:10346000FFF7E3F8002208210020FFF7DEF8022230
:1034700009210020FFF7D9F800220E210420FFF7D0
:10348000D4F8012240210020FFF7C3F901224FF4B4
:1034900080710020FFF7BDF901224FF48041042024
:1034A000FFF7B7F900A800F07AFA00A9DFF8A40343
:1034B00000F04BFA0121DFF89C0300F083FAFFF7DC
:1034C000A6FFFFF7ABFF00F060F807B000BD70B5D6
:1034D00004000D002100C9B2DFF8780300F07FFA84
:1034E00006003000C0B270BDF8B504000D00160033
:1034F000FFF786FFEDB2012D02D1FFF797FF01E044
:10350000FFF79CFF00200700FFB2F6B2B74206D2D9
:1035100008212078FFF7DBFF641C7F1CF4E7FFF72E
:1035200076FFF1BD10B51520DFF82C1308700020D0
:10353000DFF8241348703F20DFF81C1388707520D3
:10354000DFF81413C8700020DFF80C1308713F2057
:10355000DFF80413487106220121DFF8FC02FFF7AF
:10356000C3FF40220021DFF8F002FFF73FFF0020F9
:103570000400E4B2402C07DA40220021DFF8D80230
:10358000FFF7B2FF641CF4E710BD10B5DFF8C842C6
:10359000AE202070641CB3202070641C9120207029
:1035A000641CA8202070641C3F202070641CA22092
:1035B0002070641C44202070641CA1202070641CB6
:1035C00000202070641CA0202070641C63202070E8
:1035D000641CAD202070641C02202070641C8120BB
:1035E0002070641C40202070641C86202070641CA5
:1035F000BE202070641C02202070641CBF2020703C
:10360000641C0E202070641CA4202070641C2320E5
:103610002070641C01202070641C24202070641C15
:1036200000202070641C00202070641C3F2020704B
:10363000641C3F202070641C00202070641CAF209C
:103640002070641C1E2201218348FFF74DFFFFF705
:1036500069FF10BDF8B50400260000200500EDB29A
:10366000042D23DA16F003000700FFB2002F05D067
:10367000022F0DD007D3032F0FD013E00020EDB29F
:1036800000A968540EE00F20EDB200A9685409E0CB
:10369000F020EDB200A9685404E0FF20EDB200A9CB
:1036A0006854FFE7F6B2B6086D1CD8E70422002183
:1036B00000A8FFF719FFF1BD2DE9F34F81B0140009
:1036C0009A46BAF1000F00F0C2809DF8040040282D
:1036D00080F2BD809DF80800402880F2B8809DF8F7
:1036E000080081469DF8040006009AF800000028B2
:1036F00000F0AD809AF80000A02842DA1520564963
:103700000870554880F8019019F1030052498870FB
:1037100075205149C8705048067116F10B004E498A
:103720004871062201214C48FFF7DEFE9AF800009E
:103730000C214A4A01FB0020B0F5C07007000020B0
:1037400080465FFA88F8B8F10C0F15DAE4B2012C64
:1037500006D15FFA88F818F80700C043050004E0B6
:103760005FFA88F818F8070005002800C0B2FFF7D4
:1037700071FF18F10108E4E719F103091AF1010AD0
:10378000B3E7152034490870334880F8019019F1E7
:1037900007003149887075202F49C8702E4806717E
:1037A00016F10B002C494871062201212A48FFF727
:1037B0009BFE002080465FFA88F8B8F1520F1DD2B8
:1037C0005FFA88F8264830F8180080B2000A8DF8B1
:1037D00000005FFA88F8224830F8180083469AF80B
:1037E00000009DF80010884205D19AF801005FFAA8
:1037F0008BFB584502D018F10108DCE75FFA88F826
:103800001820184900FB08100700002080465FFAC6
:1038100088F8B8F1180F15DAE4B2012C06D15FFA76
:1038200088F818F80700C043050004E05FFA88F83C
:1038300018F8070005002800C0B2FFF70BFF18F1C9
:103840000108E4E719F106091AF1020A4DE7BDE89B
:10385000F78F000000000340082E0010D46700001E
:10386000446F0000303C000010B5002000F0E3F889
:103870000400B4F5AF7F01D2062005E0B4F5E27F85
:1038800001D2092000E00C2010BD000062F30F22DD
:1038900062F31F42401810F0030308D0C91A1FD367
:1038A000DB0748BF00F8012D28BF20F8022D1300C8
:1038B00030B414461546103928BF20E93C00FAD828
:1038C000490728BF20E90C0048BF40F8042D8900B3
:1038D00028BF20F8022D48BF00F8012D30BC7047EA
:1038E000C91818BF00F8012DCB0728BF00F8012D1B
:1038F000704700002DE9F84304000D000120FEF799
:10390000DFFF8146002007005FF0FF308046022085
:10391000060045450DD2781C7043B9FBF0F0804697
:103920004545F6D27F1CFF2FF3D900200700B61CB7
:10393000EFE72068C0B220602068390289B20843EE
:103940002060F0B22061BDE8F18370B504000D0085
:103950001948844205D101215FF40010FEF7C8FF29
:1039600009E01648844205D101214FF48060FEF73A
:10397000BFFF00E012E06868A968084329690843AE
:103980002968084380B206002660287B10F00F00EB
:103990000600666069692000FFF7ACFF70BD00217A
:1039A00041600021816006494161072101600021D9
:1039B000C1600021016170470080084000000340A1
:1039C00080969800C9B2012904D1426852F00202DF
:1039D000426003E0426812F00D024260704770B529
:1039E00004000D00EDB2A5600121200000F007F8F1
:1039F0000028F9D0E0680600A068C0B270BDC068B9
:103A0000084201D0012000E00020C0B27047000051
:103A10000100002000231A00D2B2102A09DAD2B223
:103A2000C9B24F4B13EB411333F812301818521C24
:103A3000F2E70009704710B504002000C0B2FFF79C
:103A4000E7FF10BD80B54FF4807200214448FFF7B6
:103A5000CDFC082200214348FFF7C8FC01221721B2
:103A60000020FEF7E2FD012218210020FEF7DDFD17
:103A700003221F210120FEF7D8FD03220C21002084
:103A8000FEF7D3FD03220C210020FEF7CEFD3649C0
:103A9000364800F06FF80121344800F090F8002219
:103AA0000021324800F097F8002201212F4800F051
:103AB00092F8002205212D4800F08DF80022062101
:103AC0002A4800F088F800220721284800F083F8EF
:103AD00001220021254800F08EF800220121234810
:103AE00000F089F800220521204800F084F8002227
:103AF00006211E4800F07FF8002207211B4800F035
:103B00007AF80021194800F050F801BD38B517487F
:103B100000F08CF80500680020D5144800F086F805
:103B2000C0F3026005001248295C104800F074F8E8
:103B300004000C48285C0A4911EB451121F810409B
:103B40000848285C401C074968540648285C102136
:103B500090FBF1F202FB110202482A5431BD000031
:103B6000082D0010402F0010801A0600004003406E
:103B700098720000F8B504000D0001214FF4805048
:103B8000FEF7B6FE002020605FF400100600012062
:103B9000FEF796FE07001F2000FB05F0B7FBF0F0D4
:103BA000471E56EA07262660F1BD026832F0E06241
:103BB00002600268C9B252EA01620260704702689C
:103BC00032F480320260C9B2002903D0026852F494
:103BD00080320260704710B4C36801248C40A34354
:103BE000C360D2B2002A04D0C36801248C402343AE
:103BF000C36010BC704710B4D2B2012A05D103686B
:103C000001248C402343036004E0036801248C40BA
:103C1000A343036010BC70470200C9B212EB8103DA
:103C20001B691800C0F30B1080B2704740687047E2
:103C300040005F00D00731041A028A00840084002B
:103C40004A014A012102100421009A0788048804CD
:103C50008B048A04AA049A048A0682008200FD0763
:103C600088008800F4078400F6079504F4079400A0
:103C7000A4004400A40114060000FE032202220254
:103C8000FE0322022202FE032202220222028103FA
:103C9000FE030202FE030202FE0320002200FE03D6
:103CA0002100FC012000FF070200BE0789048804F0
:103CB000BF0494072200FD030402FC030402FC037A
:103CC00044025201DF0040049E0712005E005202CF
:103CD0005E01D20452049A0710002000FF07100072
:103CE00088000401FE038802880088048404030716
:103CF00010001000FF0111011101FF01110111015C
:103D0000FF0111041004E0074000CF032402040166
:103D1000E207AE04EB07AA04EA07AE04AA04100601
:103D200010002000FF0701040000FF07200024000E
:103D3000E40324002A00F10708000401FE03100038
:103D4000FF07440132028D0460001E02C0013E00E4
:103D50008800AA008800BF074C029A02A9028402C8
:103D60009F0212018C025304E20124012001200170
:103D700017060400F403240244018C0044013006B9
:103D8000FE035202FE032000FF072000FC01040195
:103D9000040124012401FF0784000401E4072F002B
:103DA00024012601EE072501240124012401D40762
:103DB0008200F2071104F5071300F20751055B05B5
:103DC000F007540553051006FC0104010401FC0131
:103DD0000000FF0708000400FC030002000280014D
:103DE0008200A400E00390008700F407440144012E
:103DF000240514060A00F107F403240244018F008D
:103E00004401B4068C00E7038400F40784008600B4
:103E10005E02500189048A0274010202FD05040158
:103E2000FC0188005000FF0780008700F50785002F
:103E30008300FD078500950493049104F1070104B4
:103E400010002000FF0708000800F803080208021D
:103E5000040204020202C101800280048000FF0704
:103E600080008000BE00880008010805780607046D
:103E70000000FE0322022202FE0322022202FE03AF
:103E8000220222022202810320004000FC070404D7
:103E900004040404FC0704040400020002000100FE
:103EA00000000000FE030000000000000000000011
:103EB00000000000FF07000044014402E20729015E
:103EC0003701E40722012F01E0072C012301E0075D
:103ED000F0030F02240224022202EE070B040A045C
:103EE000FA050E040A0400034100FA074000F0033B
:103EF0004300FA071202F2031202F203160212033F
:103F0000840044012F02D20505007F0454057C057E
:103F100057057405540454060C00100020002000BE
:103F20005000500050008800880004010202010483
:103F300010001000F80304020A01D0003000FC0752
:103F40000B040804F80708042000FF071104A00070
:103F50004A022A05F1050C00200022022202FE037B
:103F6000F0030F02240224022202EE070B040A04CB
:103F7000FA050E040A0400030400E40704041F0405
:103F80000404C4071C04070404040404E40706042E
:103F90002000500088000401FB0620002000FE03E2
:103FA0002000240122023104C8073F01A500DE07DA
:103FB00053044C05520561055E0512019E02520430
:103FC00041004200F80720009000F30382008200C5
:103FD000FA0782008200FD0744008400F4072F02E4
:103FE0004401F4078C00F70744026402840176065A
:103FF000DE035202DE0320012002FF0750008C0185
:104000000306DE035202DE03880088004401240216
:10401000160425022402240224022402240214028B
:104020000000FF07400040002000B00028012402EB
:10403000230420002000200010001000FF070800CB
:10404000E40304018600F507840084008400C400B2
:1040500010001000FF070800880084008600E503B8
:10406000840084008400F40742024202EE07410209
:10407000F7070200E2072F04E2072A04E6072204FA
:10408000F10112011001F0010300FA034200FE07E2
:104090004200A60012010806FE030202020202020A
:1040A000FE0320002000E403240024002A00F1077E
:1040B00000020F020902E90709020F024902890200
:1040C00089020F020902800308000803C8003800B3
:1040D0000800FF074800480088002801180608006B
:1040E000FE0322024202FF072202FE032202FE0317
:1040F0002000FE032000FF070000FE070200420030
:1041000042004200FA034200420142024200FD071F
:1041100040008100FA0720001002F9070204500154
:1041200050015205490544068800F8070400E403DD
:104130002602E5030400F4071404E4038400C40029
:104140004000400040004400C403440044004400D8
:10415000440044004400FF07200050008800040190
:10416000FB0620002000FE0320002401A800FF071A
:104170000804AA039D008900BF0789029D02AB02C3
:1041800089028902BF0240020000FE038800880005
:1041900088008800FF07880088008400840082006F
:1041A0000000FE03000000000000FF0788008800F8
:1041B000880084048204010700020F020902E90753
:1041C00009020F024902890289020F0209028003D3
:1041D00088008800040104010202FD05100110019D
:1041E000080108010401E20004000400FC070200C9
:1041F0000200FE0300020002FF0200020002C001F2
:104200000000DE07520452045E035200D2075E052E
:10421000520552025205D9040800FC018A007000C0
:104220008C0113061000FE01080108010401C20000
:10423000DE035202DE0320012002FF0750008C0142
:104240000306DE035202DE03F9012201C000F80377
:104250004B02FA034A02FA034A024A030200FD072C
:1042600044008400FA070200F3030200F203020094
:10427000F2031202F2031202200020002000FE03CB
:10428000220222022202FE0322022000200020003D
:1042900088009704A4028400EF072404E6072E0494
:1042A000E5072404240424064200DE072901200037
:1042B000FE032000FF078000FF0784008800E00065
:1042C0004200DE072901000008010401F60705018C
:1042D000140124010401C40142024202EE0741021A
:1042E000F7070200E2072F04E2072A04E607220488
:1042F000F10112011001F0010300FA034200FE0770
:104300004200A600120108060800C8079E0488049F
:1043100048063F00C8074A047A04CA070E00F90796
:10432000020204020002F0070702240244024402CF
:10433000040284030A00F10720004000FC07040483
:104340000404FC070400FC070C040A04FA0709042F
:1043500080008E008000C0079F04840482048A04C9
:1043600091045F04400420030000FE0300020002E9
:1043700002020202FE030200020002040204FC0721
:104380000400E40302018900470124021204EF0340
:1043900080008C008300F00720002000F903120049
:1043A00050004800F80740005201490244046000F0
:1043B00084008400F20789008700E4030200EF0311
:1043C00020022C02E303200220002100E207100457
:1043D000500248004000A400A20011010802040499
:1043E00080B50C220021DFF8D005FEF7FFFF00208A
:1043F000DFF8C415486206220021DFF8C005FEF789
:10440000F5FF0020DFF8B015886210220021DFF8E8
:10441000B005FEF7EBFF0020DFF89C1581F82200C5
:104420000C220021DFF89C05FEF7E0FF0020DFF8FA
:104430009415486206220021DFF88C05FEF7D6FFAE
:104440000020DFF88015886210220021DFF87C054B
:10445000FEF7CCFF0020DFF86C1581F82200002069
:10446000DFF86C1508700020DFF868150870002070
:10447000DFF8641508700020DFF860150870002070
:10448000DFF85C1508600020DFF858150860002090
:10449000DFF8541508800020DFF85015086001BDD2
:1044A0002DE9F84F5FF000095FF0000AFDF719F9F8
:1044B000012840F07D82DFF838050078C043DFF83E
:1044C00030150870DFF82805007880465FEAC8706C
:1044D00003D50A20FDF7F8F902E00A20FDF741FABA
:1044E000DFF8100590F8010107000020DFF804153F
:1044F00081F802010020DFF8FC1481F8010100209E
:10450000DFF8F01481F80001FFB2082FC0F25082EA
:10451000DFF8E0040078012840F04A820120FEF72D
:10452000C5F80122FFB2B91EDFF8C804FEF7EAF8A9
:104530008146484605001FFA89F95FEA19200600FE
:10454000FFB2DFF8B004381810F8020CEDB2854263
:1045500040F02D82FFB2DFF89C04381810F8010CEF
:10456000F6B2864240F02382DFF8880440780328C0
:1045700003D0102800F052811AE2DFF878040078A6
:10458000DFF874140870DFF86C044078DFF8681402
:104590004870DFF86004007981465FEA0929DFF896
:1045A0005404407950EA09091FFA89F95FEA490978
:1045B000DFF8440480F8029048460700DFF834042E
:1045C000408882461FFA8AFA5FEA0A2050EA1A2ACD
:1045D0001FFA8AFA5046142808D0282867D03228B3
:1045E00000F0B780642800F0E280F2E0FFF73CF9C9
:1045F000DFF808144873DFF80404407B062804D170
:104600000120DFF8F413C87003E00020DFF8E8139E
:10461000C870DFF8C4030078002804D10020DFF858
:10462000D813087106E0DFF8B4030078401CDFF807
:10463000C8130871002083465FFA8BFBBBF10C0F97
:104640000FDA5FFA8BFBDFF870031BF800005FFAEC
:104650008BFBDFF8A4131BEB010148711BF1010B6D
:10466000EAE7DFF85403406A000EDFF88C13487461
:10467000DFF84403406A000CDFF87C138874DFF82D
:104680003803406A000ADFF87013C874DFF82803A3
:10469000406ADFF8641308750020DFF85C13487582
:1046A000DFF830030078DFF85013887591E0DFF809
:1046B0003C0300684FF46161B0FBF1F0DFF83813A0
:1046C000C870DFF8280300684FF46161B0FBF1F2B5
:1046D00001FB12003C21B0FBF1F0DFF81C13087164
:1046E000DFF8080300683C21B0FBF1F201FB120087
:1046F000C14948710020C0498871C1480068B84963
:104700000968401ABF490860BE480068000ABA49F3
:10471000C871BC480068B8490872BB48008880B2BC
:10472000000AB5494872B8480088B3498872AE4853
:10473000008880B2000AB049C872AB480088AE4910
:1047400008730020AC494873A1480078AA498873CF
:104750003FE00020A849C8709F480078A64908712A
:104760009548806A000EA44948719348806A000CFD
:10477000A14988719048806A000A9F49C8718E4893
:10478000806A9D4908728C48406A000E9A494872B6
:104790008948406A000C984988728748406A000A34
:1047A0009549C8728448406A9349087311E000F043
:1047B000BFF9964800789049C870944840788E496F
:1047C0000871924880788C4948719048C0788A492D
:1047D000887119F103090120FDF768FF01221FFA12
:1047E00089F949468448FDF78DFF04002000050043
:1047F000A4B2200A06001FFA89F97F4809F8005080
:104800001FFA89F97C4819EB0000467019F1020083
:10481000794981F80101FCF7E9FDC9E075480078A4
:1048200075490870734840787349487071488078BA
:10483000714988706F48C0786F49C8706D480079B9
:104840006D4908716B4840796B4948710120FDF74B
:104850002DFF012206216848FDF754FF04002000C7
:104860000500A4B2200A0600634885716248C6713B
:104870000820614981F80101FCF7B8FD5E48007924
:1048800081465FEA09295C48407950EA09091FFA24
:1048900089F95FEA4909574880F8029048460700BD
:1048A0005548408882461FFA8AFA5FEA0A2050EA91
:1048B0001A2A072083461FFA8AFA5046002808D091
:1048C00001280BD00F283AD023283BD064285BD096
:1048D0006EE0FFF785FDFBF760FF69E0002083468F
:1048E0005FFA8BFBBBF10C0F0DDA5FFA8BFB4148D3
:1048F0001BEB0000C0795FFA8BFB32490BF801001B
:104900001BF1010BECE7002083465FFA8BFBBBF148
:10491000060F0EDA5FFA8BFB36481BEB0000C07CFB
:104920005FFA8BFB27491BEB010108731BF1010B9D
:10493000EBE7002028490870FBF739FD38E0FBF76A
:104940008FFD35E02B48007A012806D12C480068FD
:1049500023490860FBF7C1FD15E02648007A0228CC
:1049600011D1274800681F4908600120FCF7F9FFB2
:104970000220FCF7F6FF00202549087000201649A8
:104980000870FBF717FE13E01A48C0791F4908703A
:104990001848007A1D4948701648407A1B498870AB
:1049A0001448807A1949C87000F09BF900E0FFE7CD
:1049B000BDE8F18F00000000742E0010802E001062
:1049C000862E0010482E0010542E00105A2E001073
:1049D000E42F0010E52F0010F02F0010EF2F001033
:1049E000742F0010782F0010D62F00106C2F00109D
:1049F000F82F0010F8280010FC290010302F0010AC
:104A0000AC2F0010BC2F0010D42F0010482F001026
:104A1000E62F0010012110F01F02914040B2420920
:104A2000704B43F82210704710B440B2002808D5EC
:104A3000CA0040B210F00F036B4C1B1903F8042C92
:104A400003E0CA0040B2694BC25410BC704780B545
:104A500067480068401C66490860FCF7D9FE00F012
:104A600062FAFCF75CFE00F0DFF900F007FC01BD24
:104A700080B500215FF0402000F03CFD012815D1F9
:104A80005C480088401C5B49088080B2642806DBD3
:104A90000020584908801420FCF716FF06E055480E
:104AA0000088192802D11420FCF75BFF00215FF079
:104AB000402000F02EFD01BD80B5012000F0FAFD80
:104AC000012000F031FE012000F01DFE01BD00B507
:104AD00085B001208DF80C000520049000208DF891
:104AE000000001208DF8010001208DF80300002056
:104AF0008DF8020003208DF804000120029003AA23
:104B000000215FF0402000F008FD00A95FF0402088
:104B100000F079FD09210120FFF786FF0120FFF752
:104B200079FF01215FF0402000F060FD05B000BD7D
:104B300038B500200400A4B2032C05DA00F0A4F874
:104B4000002801D0641CF6E7A4B2032C07DB2A4D31
:104B5000062229002948FCF755FE00F0C2F831BDB5
:104B600080B572B6FCF7A9FF00F038FE00F058FEE1
:104B700000F019FAFCF732FEFEF764FFFFF7D8FFEA
:104B8000FFF79AFFFFF7A3FFFEF760FCFDF746FF74
:104B900062B601BD00B589B0FFF7E2FF00A800F0E2
:104BA00011FEFFF77DFC01F025FAFEF7AFFFFBF7E2
:104BB00033FE01F099FA0E4800684FF4FA71B0FB29
:104BC000F1F201FB1200002807D100A800F0FAFD65
:104BD0000B4800A92022FDF7BFFD00F012FADDE727
:104BE0000000000000E100E018ED00E000E400E05B
:104BF000A02F0010D82F0010C0720000482F001006
:104C0000C42E00102DE9F04182B004000D00160002
:104C100014F03F000700C4F385108046B6B200963A
:104C200000232A00414689B2380080B200F02DFEF0
:104C3000BDE8F3812DE9F04182B004000D001600BB
:104C400014F03F000700C4F385108046B6B200960A
:104C500000232A00414689B2380080B200F0ADFE40
:104C6000BDE8F38110B402000024200000242300DA
:104C70009BB289B28B4204D214782018521C5B1C60
:104C8000F6E7C0B210BC70472DE9F0410020804625
:104C9000072227490020FFF7CDFF06212448FFF710
:104CA000E1FF804618F13308214880795FFA88F8DF
:104CB000804501D0012012E01E4804001C48050078
:104CC0000620060000200700FFB2F6B2B74205D268
:104CD000287820706D1C641C7F1CF5E70020BDE85F
:104CE000F0812DE9F0410020804612480400104870
:104CF00005000620060000200700FFB2F6B2B7420A
:104D000005D220782870641C6D1C7F1CF5E70621F5
:104D10000748FFF7A7FF804618F133002870761C7C
:104D2000072203490020FFF76DFFBDE8F081000076
:104D300030210010482F0010012110F01F02914077
:104D400040B24209DFF8883343F82210704710B5AB
:104D5000002001F070FC0400E00718D5DFF87403B0
:104D600090F80108411CDFF86C2382F80118C0B2EA
:104D7000DFF8601311EB0011002001F0D9FBD548DA
:104D800090F8010810F07F00D24981F80108012055
:104D900001F051FC0400E00715D5CF4890F8010858
:104DA000411CCD4A82F80118C0B2CB4911EB001169
:104DB000012001F0BDFBC84890F8010810F07F0009
:104DC000C54981F8010810BD70B504000D00E4B2BA
:104DD000002C02D1C148060004E0E4B2012C01D14C
:104DE000BF48060096F8000896F80118491C802272
:104DF00091FBF2F303FB1213984213D01022290007
:104E000096F8010816EB0010FCF7FCFC96F8010878
:104E1000401C802190FBF1F202FB110286F8012870
:104E2000002000E0012070BD3EB401AAAD4B30CBA4
:104E300030C2083B083A0022022A21DA01AB53F8BB
:104E40002230180083681900C1F307437F2B02D278
:104E50000B0E7F2B12D3012202600022026100227E
:104E600082600022142A03DA0E234360521CF9E701
:104E7000C36800930123036100230360521CDBE736
:104E800037BC704738B504000D00E4B2002C22D1C5
:104E9000904890F800088F4991F80118884240D056
:104EA00028008C4991F800188A4A12EB011110224F
:104EB000FDF752FC874890F80008401C854981F8AE
:104EC0000008844890F8000810F07F00814981F8BC
:104ED0000008002026E0E4B2012C22D17E4890F8A0
:104EE00000087D4991F8011888421AD028007A49B3
:104EF00091F80018784A12EB01111022FDF72CFCF2
:104F0000754890F80008401C734981F80008724801
:104F100090F8000810F07F006F4981F80008002029
:104F200000E0012032BD80B56C4890F801086B4963
:104F300091F80018884216D0684890F80008674930
:104F400011EB0011002001F023FA01280BD1634876
:104F500090F80008401C802190FBF1F202FB110246
:104F60005E4880F800285E4890F801085C4991F896
:104F70000018884216D05A4890F80008584911EB9A
:104F80000011012001F004FA01280BD1544890F8D7
:104F90000008401C802190FBF1F202FB11025048F6
:104FA00080F8002801BD80B5042215210020FDF7FE
:104FB0003CFB042216210020FDF737FB02220421CE
:104FC0000020FDF732FB022205210020FDF72DFB1A
:104FD0004549012001F073F94349002001F06FF9C0
:104FE00001220021002001F0DCFA01220021012031
:104FF00001F0D7FA1920FFF79FFE022001F002FB13
:1050000001BD00B589B004A90020FFF73BFF0028CF
:1050100029D10498012826D101208DF80D00022005
:10502000009008208DF80C0000208DF80E00112053
:105030008DF8040022208DF8050033208DF806003D
:1050400044208DF8070055208DF8080066208DF863
:10505000090077208DF80A0088208DF80B0000A940
:105060000020FFF7B1FE214800682149096811F5C9
:10507000FA7188422AD31D4800681D490860012042
:105080008DF80D001B48009008208DF80C000020C2
:105090008DF80E0001208DF8040002208DF8050027
:1050A00003208DF8060004208DF8070005208DF8F8
:1050B000080006208DF8090007208DF80A00082056
:1050C0008DF80B0000A90020FFF77EFE09B000BD9F
:1050D00000E100E020010010240900102811001058
:1050E0002C190010A072000090D00300A02F001017
:1050F000502F0010AA5A550A10B500200400E4B23F
:10510000082C13DA00220120E4B2DFF85C1311EB63
:10511000440191F9011010FA01F1E4B2DFF84803FB
:1051200010F81400FDF775FB641CE8E70420040088
:10513000E4B2082C23DA01220120E4B2DFF82813BC
:1051400011EB440191F9011010FA01F1E4B2DFF81A
:10515000180310F81400FDF75CFB00220120E4B2F4
:10516000C14911EB440191F9011010FA01F1E4B2C7
:10517000BD4810F81400FDF777FB641CD8E710BD9C
:1051800010B500200400E4B2082C11DA002201203E
:10519000E4B2B54911EB440191F9011010FA01F1A3
:1051A000E4B2B14810F81400FDF733FB641CEAE7E1
:1051B00000200400E4B2042C21DA01220120E4B230
:1051C000A94911EB440191F9011010FA01F1E4B27F
:1051D000A54810F81400FDF71CFB00220120E4B2E2
:1051E000A14911EB440191F9011010FA01F1E4B267
:1051F0009D4810F81400FDF737FB641CDAE710BD7A
:1052000070B5002600200500EDB2042D14DAEDB2D1
:10521000954810F81500FDF73AFB0400EDB29248EE
:1052200010EB4500407834FA00F0C00702D40120AA
:10523000A84006436D1CE7E73000C0B270BD70B5F2
:10524000002604200500EDB2082D14DAEDB28648E0
:1052500010F81500FDF71BFB0400EDB2824810EBBF
:105260004500407834FA00F0C00702D40120A8407D
:1052700006436D1CE7E73000C0B270BD38B57B480F
:10528000C078012800F0EE807948006877494969C4
:10529000401A0528C0F0E6807548006873494861E7
:1052A0007248407800280DD0022827D012D3042855
:1052B0004BD042D3062800F0838060D3072800F04B
:1052C000BC80CFE0FFF718FF68484078401C674972
:1052D0004870C7E0FFF794FF0500002D07D0634832
:1052E000057462484078401C6049487002E0002024
:1052F0005E49087400205D490870B3E0FFF780FF45
:1053000005005A48007C85420DD158480078401C61
:1053100056490870C0B206280EDB54484078401C3D
:105320005249487008E000205049087000204F4959
:10533000087401204D49487094E0FFF721FF4B4865
:105340004078401C494948708CE0FFF778FF050021
:10535000002D0AD04548007C281844490874434869
:105360004078401C4149487005E000203F490874DE
:1053700000203E49487000203C49087072E0FFF769
:105380005EFF05003948007C10F0F00085420DD129
:1053900036480078401C35490870C0B206280EDB3C
:1053A00032484078401C3149487008E000202F49BD
:1053B000087000202D49087400202C49487051E0E5
:1053C00000200400E4B2112C08D22848007CE4B28A
:1053D0002849615C884201D0641CF3E7E4B2112CD7
:1053E00009D30020214908700020204908740020BA
:1053F0001E49487036E01D4800791C4940188471E8
:105400001A480079401C0A2190FBF1F201FB1200BE
:10541000040016484079E4B2844203D101201349C4
:10542000C87001E01148047110484078401C0F49D1
:1054300048700B20FCF7DCFA14E00C488078411C23
:105440000A4A9170C0B215280BDB0020074988700A
:1054500000200649487000200449087000200349D4
:105460000874FFE731BD0000F4710000042F001044
:10547000A02F0010E070000038B504000120FDF7F7
:105480001FFA0500280032BD2DE97043060088464A
:105490003000FFF7F1FF002104000D005FF000096C
:1054A000A8FB040108FB051109FB04114B4A00236A
:1054B000FDF73AFA04000D002000BDE870830100FA
:1054C0005FF0FF30B1F1402F02D10022100010E058
:1054D000434A914202D1012210000AE0414A91421E
:1054E00002D10222100004E03F4A914201D103227E
:1054F0001000704710B40200106801248C40204056
:105500000300DBB2002B01D0012000E0002010BC22
:10551000704701228A40026070472DE9F041040083
:105520000D001600B4F1402F04D101210220FDF737
:10553000DFF918E02A48844204D101210420FDF754
:10554000D7F910E02748844205D101215FF480009B
:10555000FDF7CEF907E02448844204D101215FF42D
:105560000000FDF7C5F9A06A80088000A062A06A6B
:10557000A0620020A060002020610020E060606840
:1055800050F002006060606830F002006060EDB2D0
:10559000002D10D137003878002803D17868401EDC
:1055A000E06015E02000FFF78AFF7968FFF76CFFE5
:1055B000401EE0600CE0B046A06A30F00C00A06233
:1055C00098F80100012803D1A06A50F00400A062FD
:1055D0005FF0FF302060BDE8F081000040420F0026
:1055E000008000400000094000400940C9B2012984
:1055F00004D1426852F00102426003E0426852085E
:1056000052004260704730B40A78002A05D0022A5E
:1056100009D005D3032A09D00BE08A68826109E02A
:105620008A68C26106E08A68026203E08A684262B0
:1056300000E0FEE7426907230C7803256C43A34092
:105640009A4342614A78002A07D0426901230C78C4
:1056500003256C43A3401A434261CA78002A08D04C
:10566000426901230C7803256C43641CA3401A4350
:1056700042618A78002A08D0426901230C78032508
:105680006C43A41CA3401A434261C26B03230C78F1
:105690006400241DA3409A43C263C26B0B7913F0CC
:1056A00003030C786400241DA3401A43C26330BC7A
:1056B0007047000070B504000020FDF701F90500F7
:1056C0004FF47A70B5FBF0F05FF08071B1FBF0F051
:1056D00000F0BEFF0600200000F0BAFF010030001D
:1056E00000F0C6FF00D2FEE71848006850F0040042
:1056F000164908604FF47A70B5FBF0F06043401E25
:105700001349086070BDC0B2012806D10F4909686D
:1057100051F001010D4A116005E00C490968490882
:1057200049000A4A11607047C0B2012806D10749F2
:10573000096851F00201054A116005E00349096852
:1057400031F00201014A11607047000010E000E0F2
:1057500014E000E0012110F01F02914040B2420924
:105760002A4B43F82210704710B440B2002808D5E5
:10577000CA0040B210F00F03254C1B1903F8042C8B
:1057800003E0CA0040B2234BC25410BC704710B5AE
:105790000121214801F004F8002808D000211E480A
:1057A00000F0A0FF040001211B4801F001F80221D4
:1057B000194800F0F5FF002803D00221164800F038
:1057C000F7FF10BD10B504001449134800F0C1FFE5
:1057D000200012492022FCF7BFFF10BD80B50E4803
:1057E00000F058FF1120FFF7B5FF09211120FFF746
:1057F000BBFF094800F060FF0121074800F065FF8A
:105800000021054800F0D8FF01BD000080E100E064
:1058100018ED00E000E400E000400240E42E00103B
:1058200038B50020A94908600020FDF749F80500B7
:10583000A748B5FBF0F0401E0400A6480460A64847
:10584000B5FBF0F00F2148434FF47A71B0FBF1F053
:10585000401C0400A048B5FBF0F0372148434FF44A
:105860007A71B0FBF1F0401C54EA00249A48B5FB71
:10587000F0F0232148434FF47A71B0FBF1F0401C63
:1058800054EA00449548046031BDF0B4049D17000B
:105890005FF0A054DFF848C2CCF80040DBB2012B27
:1058A00002D1C40709D5FEE7DBB2022B05D15FF0B8
:1058B000030C10EA0C0F00D0FEE780B210F03F049A
:1058C000DFF820C2CCF800405FF08064DFF810C23F
:1058D000CCF8004000242600AE426CD2DBB2002B94
:1058E0000CD10324DFF800C2CCF800403C78DFF88C
:1058F000FCC1CCF800407F1C401C1BE0DBB2012B3C
:105900000CD10424DFF8E0C1CCF800403C78DFF88B
:10591000DCC1CCF800407F1C801C0BE00524DFF8C4
:10592000C8C1CCF800403C78DFF8C0C1CCF80040DA
:105930007F1C001D80B2402801DB012400E0002410
:10594000B5F1010C664502D15FF0010C01E05FF09A
:10595000000CE4B25FFA8CFC5CEA0404002C18D062
:105960005FF08054DFF878C1CCF8004089B211F0C4
:105970003F04A401DFF86CC1CCF800400624DFF836
:1059800068C1CCF800405A4C2468C4F30074002C61
:10599000F9D080B240280CDB00242000491C0024F0
:1059A000DFF840C1CCF8004089B2402901DB002477
:1059B0002100761C90E7F0BC7047F0B4049C160000
:1059C0005FF0A057DFF818C1CCF8007089B211F071
:1059D0003F0780B210F03F0C5CEA8717DFF804C184
:1059E000CCF80070DBB2002B05D10827DFF8F8C037
:1059F000CCF8007015E0DBB2012B07D10927DFF8E6
:105A0000E8C0CCF80070C7070BD5FEE70A27DFF81F
:105A1000D8C0CCF800705FF0030C10EA0C0F00D077
:105A2000FEE700273D00A5424DD25FF08067DFF81A
:105A3000B0C0CCF80070DBB2002B05D12D4F3F6811
:105A40003770761C401C0DE0DBB2012B05D1294FCD
:105A50003F683770761C801C04E0264F3F68377023
:105A6000761C001D224F3F68C7F38067002FF9D0D6
:105A700080B2402825DB00273800491C89B211F08C
:105A80003F0780B210F03F0C5CEA8717DFF854C084
:105A9000CCF80070DBB2002B05D10827DFF848C036
:105AA000CCF800700DE0DBB2012B05D10927DFF83F
:105AB00038C0CCF8007004E00A27DFF82CC0CCF81E
:105AC00000706D1CAFE7F0BC70470000980020002C
:105AD000D8B805009400200040420F00900020003C
:105AE000E80F2000840020008000200088002000B3
:105AF000E00F20008C0020000FB430B400209DF88F
:105B0000094122000024DFF89C552C70002421005C
:105B1000C9B2D2B2914216D2C9B202AC0C5D682CA5
:105B20000FD1DFF8804521700B00DBB2D2B2941E9A
:105B3000A34205DADBB202AC1C5D20185B1CF4E763
:105B400001E0491CE4E7C0B230BC04B0704730B497
:105B5000002423000C782200D2B21409E4B20A25F2
:105B60006C43230012F00F02D2B2D3184C782200FB
:105B7000D2B21409E4B24FF47A7505FB043312F083
:105B80000F02D2B2642404FB02338C782200D2B21A
:105B90001409E4B2DFF8105505FB043312F00F02CC
:105BA000D2B242F2107404FB0233CC782200D2B29B
:105BB0001409E4B2DFF8F45405FB043312F00F02C9
:105BC000D2B2DFF8EC4404FB0233036030BC704710
